:020000040800F2
:1000000000500020E9150008451500084B150008B0
:1000100051150008571500085D1500080000000084
:100020000000000000000000000000006315000850
:100030006F150008000000007B15000887150008F8
:100040003116000831160008311600083116000874
:100050003116000893150008311600083116000803
:100060003116000831160008311600083116000854
:100070003116000831160008311600083116000844
:100080003116000831160008311600083116000834
:100090003116000831160008311600089F150008B7
:1000A0003116000831160008311600083116000814
:1000B000C91500083116000831160008311600086D
:1000C00031160008311600083116000831160008F4
:1000D00031160008311600083116000831160008E4
:1000E000B71500083116000831160008000000009E
:1000F0000000000000000000000000000000000000
:0C01000000000000000000005FF808F1A3
:10010C0010B5054C237833B9044B13B10448AFF345
:10011C0000800123237010BD10000020000000009F
:10012C00EC3B000808B5034B1BB103490348AFF384
:10013C00008008BD0000000014000020EC3B00080B
:10014C0080B483B000AF786039607B689B683A6894
:10015C00DA607B689B685B6803F482727B689B68DF
:10016C009B6803F404431A437B689B68DB6803F4C5
:10017C0000631A437B689B681B6903F002031A43F4
:10018C007B689B685B6903F001031A437B689B687F
:10019C009B6903F400731A437B689B68DB6903F06B
:1001AC0038031A437B689B681B6A03F0800342EA9E
:1001BC0003017B689B689B6A03F400527B689B6815
:1001CC001B680A431A6000BF0C37BD4680BC7047E1
:1001DC0080B582B000AF78607B68D8687B681B699B
:1001EC009BB20022194601F037FD00BF0837BD460F
:1001FC0080BD80B582B000AF78607B68D8687B68C2
:10020C001B699BB20122194601F026FD00BF08377D
:10021C00BD4680BD80B582B000AF78600B46FB70E8
:10022C007B6858697B689B699BB20022194601F078
:10023C0013FD7B689868F91C6423012202F0B6FE5A
:10024C007B6858697B689B699BB20122194601F057
:10025C0003FD00BF0837BD4680BD80B584B000AF3C
:10026C00F860B9607A60FB689868BB689AB26423DE
:10027C00796802F09BFE00BF1037BD4680BD0000C0
:10028C0080B586B000AFF860B9607A603B60FB68FF
:10029C00F0221A60FB68F0225A60FB68BA689A6018
:1002AC00FB687A68DA60FB683A681A61FB683A6A3C
:1002BC005A61FB687A6A9A61FB68BA6ADA61FB6810
:1002CC00FA6A1A62FB683A6B5A62FB687A6B9A623A
:1002DC00FB68D868FB681B699BB20122194601F0C8
:1002EC00BBFCFB685869FB689B699BB201221946F1
:1002FC0001F0B2FCFB68586AFB689B6A9BB2002257
:10030C00194601F0A9FC642001F0F0F9FB68586A69
:10031C00FB689B6A9BB20122194601F09DFC64208C
:10032C0001F0E4F91D4B7B617B691B78FB7420E0C9
:10033C007B691B78FB747B6901337B617B691B7860
:10034C00BB747B6901337B61BB7C03F07F037B74E3
:10035C007B7CF97C7A69F86800F022F87B7C7A69FE
:10036C0013447B6197F91230002B02DA962001F0CE
:10037C00BDF9FB7C002BDBD1FB68DB69002B08D0C3
:10038C00FB68D869FB681B6A9BB20122194601F015
:10039C0063FC00BF1837BD4680BD00BF043C00089D
:1003AC0080B584B000AFF8607A601A460B46FB72D9
:1003BC001346BB72F868FFF70BFF0021F868FFF7D4
:1003CC00BFFEFB7A1946F868FFF724FFFB689868B4
:1003DC00BB7A9AB26423796802F0E8FDF868FFF7FB
:1003EC0008FF00BF1037BD4680BD80B586B000AF9A
:1003FC00F860084611461A4603467B810B463B8142
:10040C001346FB807A89FB8813449BB2013B9BB259
:10041C00FB823A893B8C13449BB2013B9BB2BB825F
:10042C000021F868FFF78CFE2A21F868FFF7F2FE2E
:10043C004FF40061F868FFF783FE07F10A031A46D0
:10044C000121F868FFF709FF07F116031A4601218D
:10045C00F868FFF702FF0021F868FFF771FE2B2107
:10046C00F868FFF7D7FE4FF40061F868FFF768FEF5
:10047C0007F108031A460121F868FFF7EEFE07F1B1
:10048C0014031A460121F868FFF7E7FE0021F8680B
:10049C00FFF756FE2C21F868FFF7BCFE00BF18379B
:1004AC00BD4680BD80B483B000AF786039607B6896
:1004BC009B683A68DA607B689B685B6803F48272BD
:1004CC007B689B689B6803F404431A437B689B68B6
:1004DC00DB6803F400631A437B689B681B6903F0B9
:1004EC0002031A437B689B685B6903F001031A43A0
:1004FC007B689B689B6903F400731A437B689B6859
:10050C00DB6903F038031A437B689B681B6A03F0B2
:10051C00800342EA03017B689B689B6A03F40052E8
:10052C007B689B681B680A431A6000BF0C37BD468A
:10053C0080BC704780B582B000AF78607B68D868AB
:10054C007B681B699BB20022194601F085FB00BF3A
:10055C000837BD4680BD80B582B000AF78607B683F
:10056C00D8687B681B699BB20122194601F074FBA9
:10057C0000BF0837BD4680BD80B500AF0122082101
:10058C00034801F069FB034B05221A7000BF80BDC4
:10059C00000C01403000002090B587B002AF04463B
:1005AC00084611461A462346FB800346BB800B4681
:1005BC007B8013463B801748FFF7BCFF7888BA88CE
:1005CC00F9883B88009303461248FFF70EFF4FF45F
:1005DC0000611048FFF766FF7B883A8802FB03F343
:1005EC00BB600023FB6009E00A23012207F1200114
:1005FC00094802F0DBFCFB680133FB60FA68BB685E
:10060C009A42F1D30348FFF7A6FF00BF1437BD464B
:10061C0090BD00BF94000020C000002090B587B0B2
:10062C0002AF0446084611461A462346FB710346A0
:10063C00BB800B467B8013463B80FB79092B00F279
:10064C00B480FB795B4AD35CFB731423BB8114230A
:10065C007B8104233B81BA883B89134498B2FB7B92
:10066C0003F00103002B01D03B8800E03B8C3C895C
:10067C00BA89798800932346FFF78EFFBA88BB8925
:10068C0013449AB23B89134498B27A883B89134439
:10069C0099B2FB7B03F00203002B01D03B8800E0F6
:1006AC003B8C7C893A8900932346FFF775FFBA8807
:1006BC00BB8913449AB23B89134498B23B895B00C3
:1006CC009AB27B8813449AB27B89134499B2FB7B10
:1006DC0003F00403002B01D03B8800E03B8C7C89A9
:1006EC003A8900932346FFF757FFBA883B89134496
:1006FC0098B27A893B8913449BB25B009AB27B888F
:10070C00134499B2FB7B03F00803002B01D03B8808
:10071C0000E03B8C3C89BA8900932346FFF73CFFF1
:10072C003B895B009AB27B8813449AB27B89134451
:10073C0099B2FB7B03F01003002B01D03B8800E047
:10074C003B8C7C893A89B88800932346FFF724FFB9
:10075C007A883B89134499B2FB7B03F02003002B6E
:10076C0001D03B8800E03B8C7C893A89B8880093A7
:10077C002346FFF711FFBA883B89134498B27A8855
:10078C003B8913449AB27B89134499B2FB7B03F0E7
:10079C004003002B01D03B8800E03B8C3C89BA899C
:1007AC0000932346FFF7F8FE00E000BF1437BD4668
:1007BC0090BD00BFE43C000890B587B002AF044682
:1007CC00084611461A462346FB710346BB800B466E
:1007DC007B8013463B80FB79092B00F2B480FB79BC
:1007EC005B4AD35CFB730A23BB810C237B81032301
:1007FC003B81BA883B89134498B2FB7B03F001031D
:10080C00002B01D03B8800E03B8C3C89BA8979886D
:10081C0000932346FFF7C0FEBA88BB8913449AB2F3
:10082C003B89134498B27A883B89134499B2FB7B79
:10083C0003F00203002B01D03B8800E03B8C7C8949
:10084C003A8900932346FFF7A7FEBA88BB89134465
:10085C009AB23B89134498B23B895B009AB27B886D
:10086C0013449AB27B89134499B2FB7B03F00403C3
:10087C00002B01D03B8800E03B8C7C893A890093AB
:10088C002346FFF789FEBA883B89134498B27A89CC
:10089C003B8913449BB25B009AB27B88134499B298
:1008AC00FB7B03F00803002B01D03B8800E03B8C62
:1008BC003C89BA8900932346FFF76EFE3B895B00A7
:1008CC009AB27B8813449AB27B89134499B2FB7B0E
:1008DC0003F01003002B01D03B8800E03B8C7C899B
:1008EC003A89B88800932346FFF756FE7A883B89ED
:1008FC00134499B2FB7B03F02003002B01D03B88FF
:10090C0000E03B8C7C893A89B88800932346FFF73A
:10091C0043FEBA883B89134498B27A883B891344C6
:10092C009AB27B89134499B2FB7B03F04003002BF2
:10093C0001D03B8800E03B8C3C89BA89009323466C
:10094C00FFF72AFE00E000BF1437BD4690BD00BF84
:10095C00E43C000880B584B000AF0346FB717D4BCE
:10096C001B78FB737B4B1B78022B00F09B80022BBC
:10097C0000F3D580002B02D0012B36D0CFE0FB79D1
:10098C00012B09D1744B01221A70724B01221A707F
:10099C00724B01221A70BDE0FB79022B0FD1704B08
:1009AC0000221A706F4B00221A706F4B00221A80B3
:1009BC006E4B00221A70694B01221A70AAE0FB7967
:1009CC00032B40F0A780694B1B78002B00F0A28012
:1009DC00664B1B78013BDAB2654B1A705D4B0222F9
:1009EC001A705E4B01221A7094E0FB79012B09D12D
:1009FC00594B00221A70574B00221A70574B012288
:100A0C001A7089E0FB79022B38D1584B1B78132BC9
:100A1C0000F28280554B1B781946514B1B78D8B28B
:100A2C00544A0B465B000B44134402461A704F4B5E
:100A3C001B7819464B4B1B78D8B24E4A0B465B00C1
:100A4C000B441344013302461A70474B1B889AB26D
:100A5C00464B1B781946D0B2464A0B465B000B44FA
:100A6C001344023302461A70404B1B780133DAB23E
:100A7C003E4B1A70394B01221A704DE0FB79032B57
:100A8C004AD13A4B1B78002B46D0384B1B78013B94
:100A9C00DAB2374B1A702F4B02221A702F4B0122ED
:100AAC001A7039E0FB79012B0DD1314B1B78002BDF
:100ABC0034D02F4B1B78013BDAB22D4B1A70274BDD
:100ACC0001221A702AE0FB79022B11D1284B1B78DA
:100ADC001A46264B1B78013B9A421FDA244B1B7893
:100AEC000133DAB2224B1A701C4B01221A7015E03A
:100AFC00FB79032B12D1184B1B78DBB2012B0CBFEB
:100B0C0001230023DBB21A46124B1A70134B01223D
:100B1C001A7003E000BF02E000BF00E000BF0D4B05
:100B2C001B78FA7B9A4202D0FFF726FD0EE0FB7988
:100B3C00022B02D1FFF720FD08E0FB79012B05D138
:100B4C00044B1B78022B01D1FFF716FD00BF1037A9
:100B5C00BD4680BD33000020310000200100002084
:100B6C002F0000202E0000202C000020340000203C
:100B7C00350000204400002080B58EB006AF00F098
:100B8C0053FD00F0B7F900F0DFFA00F091FA00F035
:100B9C0059FA00F00DFA00220121A24801F05CF88C
:100BAC00C82000F0A3FD012201219E4801F054F859
:100BBC00C82000F09BFD012305939A4B049300235E
:100BCC000393002302934FF480630193954B00939E
:100BDC000223944A94499548FFF752FB9348FFF738
:100BEC00A9FCF0230093F023002200218F48FFF78B
:100BFC00FCFB4FF400618D48FFF754FC00237B8015
:100C0C000023FB6108E0B91C0A230122864802F08C
:100C1C00CDF9FB690133FB61FB69B3F5614FF2D38D
:100C2C008248FFF798FC5F23BB824FF6E0737B8210
:100C3C007B88798ABA8A00930B4609210020FFF73A
:100C4C00EDFC7B88798ABA8A00930B462A21002016
:100C5C00FFF7E4FC7B88798ABA8A00930B465E2105
:100C6C000020FFF7DBFC7B88798ABA8A00930B465D
:100C7C007F210020FFF7D2FCBB8A12333B827B889A
:100C8C00798A3A8A00930B46B4210020FFF794FD31
:100C9C007B88798A3A8A00930B46CD210020FFF796
:100CAC008BFDBB8A0F3399B27B8A009304230422F9
:100CBC005020FFF771FCBB8A233399B27B8A0093D7
:100CCC00042304225020FFF767FCBB8A2C3399B213
:100CDC007B8A009304230422A320FFF75DFC544875
:100CEC0002F0B0FB0023FB7372B600BF514B1B78B4
:100CFC00FB73504B00221A7062B600BFFB7B002BBB
:100D0C0003D0FB7B1846FFF725FE4B4B1B78DBB261
:100D1C00012BE7D1484B00221A70484B1B78022B51
:100D2C0023D1474B1B781946464A0B465B000B44B4
:100D3C0013441B78FB76424B1B781946414A0B46F1
:100D4C005B000B44134401331B78BB763C4B1B7884
:100D5C0019463C4A0B465B000B44134402331B7888
:100D6C003B8340F2FF73FB820BE0374B1B78FB7627
:100D7C00364B1B78BB76364B1B883B834FF6E073A8
:100D8C00FB825F23BB81BB8912337B8100233B81B8
:100D9C00FB7E304AA2FB0323DB08D8B2F98ABA895E
:100DAC003B8900930B460921FFF738FCFA7E294B4F
:100DBC00A3FB0213D9080B469B000B445B00D31A10
:100DCC00D8B2F98ABA893B8900930B462A21FFF7DE
:100DDC0025FCBB7E1F4AA2FB0323DB08D8B2F98A91
:100DEC00BA893B8900930B465E21FFF717FCBA7E4C
:100DFC00184BA3FB0213D9080B469B000B445B005A
:100E0C00D31AD8B2F98ABA893B8900930B467F2151
:100E1C00FFF704FC104B1B78DBB2002B1ED0FB8AB7
:100E2C001DE000BF000C0140C00000209400002019
:100E3C0018010020320000200100002033000020A7
:100E4C0035000020440000202F0000202E00002040
:100E5C002C000020CDCCCCCC000000203B89FB80AA
:100E6C00BB890F3399B2FB880093042304225020D2
:100E7C00FFF792FBBB89233399B2FB8800930423C1
:100E8C0004225020FFF788FB3B8B194AA2FB03235B
:100E9C00DB089BB27B717B79154AA2FB0323DB0831
:100EAC00D8B2F98A7A893B8900930B46B421FFF7B3
:100EBC0083FC7A790E4BA3FB0213D9080B469B00DB
:100ECC000B445B00D31AD8B2F98A7A893B89009318
:100EDC000B46CD21FFF770FCBB892C3399B2FB8AF2
:100EEC00009304230422A320FFF756FBFAE600BF6D
:100EFC00CDCCCCCC80B594B000AF07F12803282220
:100F0C000021184602F064FE07F1140300221A6057
:100F1C005A609A60DA601A613B1D00221A605A60AE
:100F2C009A60DA600923BB624FF48033FB620023C2
:100F3C003B630123BB6301233B6402237B644FF4BB
:100F4C008033BB644FF4E013FB6407F128031846AD
:100F5C0000F0BEFE0346002B01D000F01BFA0F235D
:100F6C007B610223BB610023FB614FF480633B6216
:100F7C0000237B6207F114030221184601F028F9C3
:100F8C000346002B01D000F005FA01237B604FF4DF
:100F9C000073BB603B1D184601F094FA0346002B0E
:100FAC0001D000F0F7F900BF5037BD4680BD0000FE
:100FBC0080B582B000AF3B1D00210A461A800A465C
:100FCC009A7000233B601D4B1D4A1A601B4B4FF05F
:100FDC00FF325A60194B4FF480729A60174801F037
:100FEC00DDFB0346002B01D000F0D4F912233B713A
:100FFC0015237B710023BB713B1D012219460F4841
:10100C0001F058FC0346002B01D000F0C3F901237A
:10101C003B7001237B700123BB700023FB703B46AC
:10102C0001221946054801F0DDFC0346002B01D0D6
:10103C0000F0B0F900BF0837BD4680BD800000202D
:10104C000028004080B500AF174B184A1A60164BA9
:10105C004FF482725A60144B00229A60124B002299
:10106C00DA60114B00221A610F4B00225A610E4BB1
:10107C004FF400729A610C4B1822DA610A4B002271
:10108C001A62094B00225A62074B00229A62064BE5
:10109C000A22DA62044801F005FF0346002B01D056
:1010AC0000F078F900BF80BDC00000200030014086
:1010BC0080B586B000AF07F1080300221A605A60B1
:1010CC009A60DA603B4600221A605A601D4B4FF062
:1010DC0080421A601B4B41F61F425A60194B00228A
:1010EC009A60184B6322DA60164B00221A61154B7A
:1010FC0080229A61134802F056F90346002B01D066
:10110C0000F048F94FF48053BB6007F1080319460F
:10111C000C4802F0D9FA0346002B01D000F03AF942
:10112C0000233B6000237B603B461946054802F0D8
:10113C00BBFC0346002B01D000F02CF900BF183784
:10114C00BD4680BD1801002080B588B000AF07F106
:10115C00100300221A605A609A60DA602F4B9B6968
:10116C002E4A43F0200393612C4B9B6903F0200320
:10117C00FB60FB68294B9B69284A43F0040393618D
:10118C00264B9B6903F00403BB60BB68234B9B6934
:10119C00224A43F008039361204B9B6903F0080338
:1011AC007B607B68012201211D4800F055FD002267
:1011BC0040F20A411A4800F04FFD40F20B433B61EC
:1011CC0001237B610023BB610223FB6107F1100348
:1011DC001946134800F0BCFB4FF4E0633B61114B24
:1011EC007B610123BB6107F1100319460E4800F027
:1011FC00AFFB00220021172000F073FB172000F03A
:10120C008CFB00220021282000F06BFB282000F032
:10121C0084FB00BF2037BD4680BD00BF00100240DC
:10122C00000C0140000021100008014080B584B082
:10123C0000AF0346FB8000F04FFAF860FB88B3F573
:10124C00807F0CD1184B1B68FA68D31AC82B27D98E
:10125C00164B02221A70144AFB68136020E0FB88BC
:10126C00B3F5007F0CD1124B1B68FA68D31AC82B4C
:10127C0016D90E4B03221A700D4AFB6813600FE04F
:10128C00FB88B3F5806F0BD10A4B1B68FA68D31A35
:10129C00C82B05D9054B01221A70064AFB6813604E
:1012AC0000BF1037BD4680BD380000203200002042
:1012BC003C0000204000002080B582B000AF786078
:1012CC007B681B68B3F1804F4FD12A4B1B78DBB284
:1012DC00002B10D0274B1B78DBB2013BDAB2254B2D
:1012EC001A70244B1B78DBB2002B04D1002208218E
:1012FC00214800F0B1FC214B1B78DBB2012B34D11F
:10130C001F4B1B889BB20A339AB21D4B1A801C4B85
:10131C001B889BB2B3F57A7F20D3194B00221A801D
:10132C00184B1B78DBB20133DAB2164B1A70154B23
:10133C001B78DBB23B2B11D9124B00221A70124BCB
:10134C001B78DBB20133DAB20F4B1A700E4B1B78E1
:10135C00DBB23B2B02D90C4B00221A700B4B1B78C7
:10136C00012B02D10A4B01221A7000BF0837BD466F
:10137C0080BD00BF30000020000C01403100002077
:10138C002C0000202E0000202F0000203300002015
:10139C000100002080B400AF72B600BFFEE7000071
:1013AC0080B584B000AF194B9B69184A43F0010318
:1013BC009361164B9B6903F00103BB60BB68134B35
:1013CC00DB69124A43F08053D361104BDB6903F0A5
:1013DC0080537B607B6800220021052000F081FA9D
:1013EC00052000F09AFA0A4B5B68FB60FB6823F05F
:1013FC00E063FB60FB6843F00073FB60044AFB682E
:10140C00536000BF1037BD4680BD00BF00100240C6
:10141C000000014080B584B000AF78607B681B6829
:10142C000B4A934210D100F047FC0A4BDB69094A86
:10143C0043F00063D361074BDB6903F00063FB608F
:10144C00FB68054B01221A6000BF1037BD4680BDFA
:10145C0000280040001002403C04424280B588B095
:10146C0000AF786007F1100300221A605A609A608E
:10147C00DA607B681B681B4A93422FD11A4B9B691D
:10148C00194A43F480539361174B9B6903F48053BF
:10149C00FB60FB68144B9B69134A43F00403936194
:1014AC00114B9B6903F00403BB60BB68A0233B6139
:1014BC0002237B610323FB6107F1100319460B48E0
:1014CC0000F046FA40233B6100237B610023BB61A3
:1014DC0007F110031946054800F03AFA00BF20370F
:1014EC00BD4680BD003001400010024000080140A4
:1014FC0080B584B000AF78607B681B68B3F1804F17
:10150C0013D10C4BDB690B4A43F00103D361094B3C
:10151C00DB6903F00103FB60FB68002200211C2047
:10152C0000F0DFF91C2000F0F8F900BF1037BD46C1
:10153C0080BD00BF0010024080B400AFFEE780B455
:10154C0000AFFEE780B400AFFEE780B400AFFEE76B
:10155C0080B400AFFEE780B400AF00BFBD4680BCD6
:10156C00704780B400AF00BFBD4680BC704780B4EC
:10157C0000AF00BFBD4680BC704780B500AF00F027
:10158C0099F800BF80BD80B400AF00BFBD4680BCE1
:10159C00704780B500AF4FF4807000F075FB4FF4CE
:1015AC00007000F071FB00BF80BD80B500AF4FF440
:1015BC00806000F069FB00BF80BD000080B500AF0B
:1015CC00024801F091FF00BF80BD00BF1801002050
:1015DC0080B400AF00BFBD4680BC7047FFF7F8FF7A
:1015EC000B480C490C4A002302E0D458C450043375
:1015FC00C4188C42F9D3094A094C002301E013604A
:10160C000432A242FBD302F0BFFAFFF7B5FA7047DF
:10161C000000002010000020383D000810000020C1
:10162C0064010020FEE7000080B500AF084B1B688A
:10163C00074A43F010031360032000F047F9002021
:10164C0000F008F8FFF7ACFE0023184680BD00BF81
:10165C000020024080B582B000AF7860124B1A684F
:10166C00124B1B7819464FF47A73B3FBF1F3B2FBB0
:10167C00F3F3184600F05FF90346002B01D0012369
:10168C000EE07B680F2B0AD8002279684FF0FF30F0
:10169C0000F027F9064A7B681360002300E0012361
:1016AC0018460837BD4680BD040000200C00002001
:1016BC000800002080B400AF054B1B781A46054B80
:1016CC001B681344034A136000BFBD4680BC7047BF
:1016DC000C0000206001002080B400AF024B1B689E
:1016EC001846BD4680BC70476001002080B584B0B0
:1016FC0000AF7860FFF7F0FFB8607B68FB60FB68B9
:10170C00B3F1FF3F05D00A4B1B781A46FB68134414
:10171C00FB6000BFFFF7E0FF0246BB68D31AFA6814
:10172C009A42F7D800BF00BF1037BD4680BD00BF3E
:10173C000C00002080B485B000AF78607B6803F0AB
:10174C000703FB600C4BDB68BB60BA684FF6FF030A
:10175C001340BB60FB681A02BB68134343F0BF63C2
:10176C0043F40033BB60044ABB68D36000BF14373A
:10177C00BD4680BC704700BF00ED00E080B400AFF8
:10178C00044BDB681B0A03F007031846BD4680BCFC
:10179C00704700BF00ED00E080B483B000AF03469B
:1017AC00FB7197F90730002B0BDBFB7903F01F0261
:1017BC00064997F907305B09012000FA02F241F85B
:1017CC00232000BF0C37BD4680BC704700E100E011
:1017DC0080B483B000AF03463960FB7197F90730D2
:1017EC00002B0ADB3B68DAB20C4997F9073012017F
:1017FC00D2B20B4483F800230AE03B68DAB2084902
:10180C00FB7903F00F03043B1201D2B20B441A769E
:10181C0000BF0C37BD4680BC704700BF00E100E044
:10182C0000ED00E080B489B000AFF860B9607A6078
:10183C00FB6803F00703FB61FB69C3F10703042B8F
:10184C0028BF0423BB61FB690433062B02D9FB6957
:10185C00033B00E000237B614FF0FF32BB6902FACF
:10186C0003F3DA43BB681A407B699A404FF0FF31AF
:10187C007B6901FA03F3D9437B680B401343184689
:10188C002437BD4680BC704780B582B000AF78600D
:10189C007B68013BB3F1807F01D301230FE00A4A3F
:1018AC007B68013B53600F214FF0FF30FFF790FF37
:1018BC00054B00229A60044B07221A60002318463D
:1018CC000837BD4680BD00BF10E000E080B582B097
:1018DC0000AF78607868FFF72DFF00BF0837BD4672
:1018EC0080BD80B586B000AF0346B9607A60FB73EB
:1018FC0000237B61FFF742FF78617A68B9687869E9
:10190C00FFF790FF024697F90F3011461846FFF784
:10191C005FFF00BF1837BD4680BD80B582B000AFF9
:10192C000346FB7197F907301846FFF735FF00BFE8
:10193C000837BD4680BD80B582B000AF786078684E
:10194C00FFF7A2FF034618460837BD4680BD0000CE
:10195C0080B48BB000AF7860396000237B620023C9
:10196C003B6269E101227B6A02FA03F3FB613B688B
:10197C001B68FA691340BB61BA69FB699A4240F073
:10198C0058813B685B689A4A93425ED0984A93426E
:10199C0075D8984A934258D0964A93426FD8964A33
:1019AC00934252D0944A934269D8944A93424CD071
:1019BC00924A934263D8924A934246D0904A9342B9
:1019CC005DD8122B2AD8122B59D801A252F823F029
:1019DC00571A0008311A0008431A0008851A000823
:1019EC008B1A00088B1A00088B1A00088B1A000837
:1019FC008B1A00088B1A00088B1A00088B1A000827
:101A0C008B1A00088B1A00088B1A00088B1A000816
:101A1C008B1A0008391A00084D1A0008794A9342AB
:101A2C0013D02CE03B68DB683B6229E03B68DB6849
:101A3C0004333B6224E03B68DB6808333B621FE005
:101A4C003B68DB680C333B621AE03B689B68002BFD
:101A5C0002D104233B6213E03B689B68012B05D148
:101A6C0008233B627B68FA691A6109E008233B6230
:101A7C007B68FA695A6103E000233B6200E000BF17
:101A8C00BB69FF2B01D87B6801E07B6804337B6169
:101A9C00BB69FF2B02D87B6A9B0002E07B6A083B88
:101AAC009B003B617B691A680F213B6901FA03F3C8
:101ABC00DB431A40396A3B6901FA03F31A437B6929
:101ACC001A603B685B6803F08053002B00F0B18018
:101ADC004D4B9B694C4A43F0010393614A4B9B6904
:101AEC0003F00103BB60BB68484A7B6A9B08023366
:101AFC0052F82330FB607B6A03F003039B000F2238
:101B0C0002FA03F3DB43FA681340FB607B68404A3C
:101B1C00934213D07B683F4A93420DD07B683E4A78
:101B2C00934207D07B683D4A934201D1032306E0E0
:101B3C00042304E0022302E0012300E000237A6A7C
:101B4C0002F0030292009340FA681343FB602F49A2
:101B5C007B6A9B080233FA6841F823203B685B6878
:101B6C0003F48013002B06D02D4B9A682C49BB69CB
:101B7C0013438B6006E02A4B9A68BB69DB43284908
:101B8C0013408B603B685B6803F40013002B06D09A
:101B9C00234BDA682249BB691343CB6006E0204B28
:101BAC00DA68BB69DB431E491340CB603B685B685A
:101BBC0003F40033002B06D0194B5A681849BB6943
:101BCC0013434B6006E0164B5A68BB69DB43144960
:101BDC0013404B603B685B6803F48033002B21D0CF
:101BEC000F4B1A680E49BB6913430B6021E000BF11
:101BFC0000003210000031100000221000002110F3
:101C0C0000001210000011100010024000000140F2
:101C1C0000080140000C014000100140001401407C
:101C2C00000401400B4B1A68BB69DB4309491340A4
:101C3C000B607B6A01337B623B681A687B6A22FA11
:101C4C0003F3002B7FF48EAE00BF00BF2C37BD46D4
:101C5C0080BC70470004014080B483B000AF786052
:101C6C000B467B8013467B707B78002B03D07A88E5
:101C7C007B681A6103E07B881A047B681A6100BFD9
:101C8C000C37BD4680BC704780B582B000AF0346B0
:101C9C00FB80084B5A69FB881340002B06D0054A81
:101CAC00FB885361FB881846FFF7C0FA00BF083762
:101CBC00BD4680BD0004014080B400AF034B01223F
:101CCC001A6000BFBD4680BC704700BF20000E42AA
:101CDC0080B586B000AF78607B68002B01D1012302
:101CEC006CE27B681B6803F00103002B00F087801B
:101CFC00924B5B6803F00C03042B0CD08F4B5B688E
:101D0C0003F00C03082B12D18C4B5B6803F480336B
:101D1C00B3F5803F0BD1894B1B6803F40033002BC8
:101D2C006CD07B685B68002B68D1012346E27B6832
:101D3C005B68B3F5803F06D1804B1B687F4A43F448
:101D4C00803313602EE07B685B68002B0CD17B4BDF
:101D5C001B687A4A23F480331360784B1B68774AEC
:101D6C0023F4802313601DE07B685B68B3F5A02F20
:101D7C000CD1724B1B68714A43F4802313606F4B78
:101D8C001B686E4A43F4803313600BE06B4B1B688B
:101D9C006A4A23F480331360684B1B68674A23F448
:101DAC00802313607B685B68002B13D0FFF794FCD7
:101DBC00386108E0FFF790FC02463B69D31A642BAC
:101DCC0001D90323FAE15D4B1B6803F40033002BAC
:101DDC00F0D014E0FFF780FC386108E0FFF77CFCE2
:101DEC0002463B69D31A642B01D90323E6E1534B1A
:101DFC001B6803F40033002BF0D100E000BF7B68BC
:101E0C001B6803F00203002B63D04C4B5B6803F0A0
:101E1C000C03002B0BD0494B5B6803F00C03082B15
:101E2C001CD1464B5B6803F48033002B16D1434B1B
:101E3C001B6803F00203002B05D07B681B69012B88
:101E4C0001D00123BAE13D4B1B6823F0F8027B68FB
:101E5C005B69DB00394913430B603AE07B681B6913
:101E6C00002B20D0364B01221A60FFF735FC38616D
:101E7C0008E0FFF731FC02463B69D31A022B01D96B
:101E8C0003239BE12D4B1B6803F00203002BF0D0C6
:101E9C002A4B1B6823F0F8027B685B69DB0027493F
:101EAC0013430B6015E0264B00221A60FFF714FC5D
:101EBC00386108E0FFF710FC02463B69D31A022B8D
:101ECC0001D903237AE11D4B1B6803F00203002B9D
:101EDC00F0D17B681B6803F00803002B3AD07B68B9
:101EEC009B69002B19D0174B01221A60FFF7F4FBEA
:101EFC00386108E0FFF7F0FB02463B69D31A022B6E
:101F0C0001D903235AE10D4B5B6A03F00203002B4A
:101F1C00F0D0012000F0B8FA1CE00A4B00221A6045
:101F2C00FFF7DAFB38610FE0FFF7D6FB02463B699F
:101F3C00D31A022B08D9032340E100BF0010024042
:101F4C0000004242800442429E4B5B6A03F0020353
:101F5C00002BE9D17B681B6803F00403002B00F015
:101F6C00A6800023FB75974BDB6903F08053002B95
:101F7C000DD1944BDB69934A43F08053D361914B61
:101F8C00DB6903F08053BB60BB680123FB758E4B90
:101F9C001B6803F48073002B18D18B4B1B688A4A87
:101FAC0043F480731360FFF797FB386108E0FFF789
:101FBC0093FB02463B69D31A642B01D90323FDE042
:101FCC00814B1B6803F48073002BF0D07B68DB68BB
:101FDC00012B06D17B4B1B6A7A4A43F00103136237
:101FEC002DE07B68DB68002B0CD1764B1B6A754AA5
:101FFC0023F001031362734B1B6A724A23F0040330
:10200C0013621CE07B68DB68052B0CD16D4B1B6AE3
:10201C006C4A43F0040313626A4B1B6A694A43F02F
:10202C00010313620BE0674B1B6A664A23F0010342
:10203C001362644B1B6A634A23F0040313627B68CC
:10204C00DB68002B15D0FFF747FB38610AE0FFF780
:10205C0043FB02463B69D31A41F28832934201D9C1
:10206C000323ABE0574B1B6A03F00203002BEED0AB
:10207C0014E0FFF731FB38610AE0FFF72DFB024655
:10208C003B69D31A41F28832934201D9032395E07C
:10209C004C4B1B6A03F00203002BEED1FB7D012B92
:1020AC0005D1484BDB69474A23F08053D3617B68E9
:1020BC00DB69002B00F08180424B5B6803F00C0362
:1020CC00082B61D07B68DB69022B46D13F4B002289
:1020DC001A60FFF701FB386108E0FFF7FDFA0246D2
:1020EC003B69D31A022B01D9032367E0354B1B68DC
:1020FC0003F00073002BF0D17B681B6AB3F5803FB3
:10210C0008D1304B5B6823F400327B689B682D4907
:10211C0013434B602B4B5B6823F474127B68196A76
:10212C007B685B6A0B43274913434B60274B0122A7
:10213C001A60FFF7D1FA386108E0FFF7CDFA0246D2
:10214C003B69D31A022B01D9032337E01D4B1B68C3
:10215C0003F00073002BF0D02FE01C4B00221A6010
:10216C00FFF7BAFA386108E0FFF7B6FA02463B69A6
:10217C00D31A022B01D9032320E0124B1B6803F066
:10218C000073002BF0D118E07B68DB69012B01D1C7
:10219C00012313E00B4B5B68FB60FB6803F480329C
:1021AC007B681B6A9A4206D1FB6803F470127B6849
:1021BC005B6A9A4201D0012300E0002318461837CD
:1021CC00BD4680BD001002400070004060004242DD
:1021DC0080B584B000AF786039607B68002B01D18A
:1021EC000123D0E06A4B1B6803F007033A689A425C
:1021FC0010D9674B1B6823F0070265493B681343F2
:10220C000B60634B1B6803F007033A689A4201D0DA
:10221C000123B8E07B681B6803F00203002B20D07D
:10222C007B681B6803F00403002B05D0594B5B68DB
:10223C00584A43F4E06353607B681B6803F008035F
:10224C00002B05D0534B5B68524A43F460535360E8
:10225C00504B5B6823F0F0027B689B684D4913433D
:10226C004B607B681B6803F00103002B40D07B683C
:10227C005B68012B07D1474B1B6803F40033002B21
:10228C0015D101237FE07B685B68022B07D1414BA2
:10229C001B6803F00073002B09D1012373E03D4B45
:1022AC001B6803F00203002B01D101236BE0394BB7
:1022BC005B6823F003027B685B68364913434B6011
:1022CC00FFF70AFAF8600AE0FFF706FA0246FB6825
:1022DC00D31A41F28832934201D9032353E02D4B98
:1022EC005B6803F00C027B685B689B009A42EBD145
:1022FC00274B1B6803F007033A689A4210D2244B11
:10230C001B6823F0070222493B6813430B60204BE8
:10231C001B6803F007033A689A4201D0012332E0AC
:10232C007B681B6803F00403002B08D0194B5B6817
:10233C0023F4E0627B68DB68164913434B607B68CF
:10234C001B6803F00803002B09D0124B5B6823F4C5
:10235C0060527B681B69DB000E4913434B6000F035
:10236C0021F802460B4B5B681B0903F00F030A496B
:10237C00CB5C22FA03F3094A1360094B1B6818461D
:10238C00FFF768F9002318461037BD4680BD00BF23
:10239C000020024000100240F03C00080400002025
:1023AC000800002080B487B000AF0023FB6000233E
:1023BC00BB6000237B6100237B6000233B611E4BD1
:1023CC005B68FB60FB6803F00C03042B02D0082B4A
:1023DC0003D027E0194B3B6127E0FB689B0C03F013
:1023EC000F03174AD35C7B60FB6803F48033002B2C
:1023FC0010D0114B5B685B0C03F00103114AD35CEA
:10240C00BB607B680D4A02FB03F2BB68B2FBF3F3C3
:10241C007B6104E07B680C4A02FB03F37B617B6904
:10242C003B6102E0054B3B6100BF3B6918461C3722
:10243C00BD4680BC704700BF0010024000127A00FD
:10244C00083D0008183D000800093D0080B400AFAD
:10245C00024B1B681846BD4680BC70470400002028
:10246C0080B500AFFFF7F2FF0246054B5B68DB0A55
:10247C0003F007030349CB5C22FA03F3184680BD33
:10248C0000100240003D000880B485B000AF7860B9
:10249C000A4B1B680A4AA2FB03235B0A7A6802FBFD
:1024AC0003F3FB6000BFFB685A1EFA60002BF9D1E6
:1024BC0000BF00BF1437BD4680BC7047040000202D
:1024CC00D34D621080B586B000AF786000233B61BD
:1024DC000023FB607B681B6803F00103002B7DD09D
:1024EC000023FB754F4BDB6903F08053002B0DD1A0
:1024FC004C4BDB694B4A43F08053D361494BDB694E
:10250C0003F08053BB60BB680123FB75464B1B6813
:10251C0003F48073002B18D1434B1B68424A43F4DD
:10252C0080731360FFF7D8F8386108E0FFF7D4F830
:10253C0002463B69D31A642B01D903236DE03A4B55
:10254C001B6803F48073002BF0D0364B1B6A03F42A
:10255C004073FB60FB68002B2ED07B685B6803F438
:10256C004073FA689A4227D02E4B1B6A23F44073AF
:10257C00FB602E4B01221A602C4B00221A60294A58
:10258C00FB681362FB6803F00103002B14D0FFF708
:10259C00A3F838610AE0FFF79FF802463B69D31AAB
:1025AC0041F28832934201D9032336E01D4B1B6A5A
:1025BC0003F00203002BEED01A4B1B6A23F440727B
:1025CC007B685B68174913430B62FB7D012B05D1BC
:1025DC00144BDB69134A23F08053D3617B681B686F
:1025EC0003F00203002B08D00E4B5B6823F440422F
:1025FC007B689B680B4913434B607B681B6803F03B
:10260C001003002B08D0074B5B6823F480027B6817
:10261C00DB68044913434B60002318461837BD464A
:10262C0080BD00BF001002400070004040044242D8
:10263C0080B588B000AF786000237B610023FB611C
:10264C0000233B610023FB600023BB617B68102BE4
:10265C000AD07B68102B00F28A807B68012B45D056
:10266C007B68022B75D082E0464B5B68FB60454B68
:10267C001B6803F08073002B7BD0FB689B0C03F072
:10268C000F03414AD35C3B61FB6803F48033002B9E
:10269C0015D03C4B5B685B0C03F001033B4AD35CED
:1026AC007B61FB6803F48033002B0DD0384A7B69C7
:1026BC00B2FBF3F23B6902FB03F3FB6104E03B6901
:1026CC00344A02FB03F3FB612E4B5B6803F480037B
:1026DC00B3F5800F02D1FB69BB614AE0FB695B007B
:1026EC002D4AA2FB03235B08BB6142E0254B1B6A0E
:1026FC00FB60FB6803F44073B3F5807F08D1FB6883
:10270C0003F00203002B03D04FF40043BB611FE026
:10271C00FB6803F44073B3F5007F09D1194B5B6A76
:10272C0003F00203002B03D049F64043BB610FE0DA
:10273C00FB6803F44073B3F5407F1CD1114B1B684D
:10274C0003F40033002B16D04FF22443BB6112E08C
:10275C0011E0FFF785FE02460A4B5B689B0B03F00A
:10276C00030301335B00B2FBF3F3BB6104E000BF76
:10277C0002E000BF00E000BFBB6918462037BD4631
:10278C0080BD00BF001002401C3D00082C3D00081D
:10279C0000127A0000093D00ABAAAAAA80B584B049
:1027AC0000AF78600023FB607B68002B01D1012314
:1027BC007AE07B685B7CDBB2002B05D17B68002266
:1027CC001A747868FEF726FE7B6802225A747868C1
:1027DC0000F0BEF90346002B04D07B6804225A7427
:1027EC00012361E0786800F077FA0346002B04D0EF
:1027FC007B6804225A74012356E07B681B685A6874
:10280C007B681B6822F007025A607B689B68002B70
:10281C0005D0274B1B6B264A23F001031363244B73
:10282C00DB6A23F460727B689B6821491343CB629B
:10283C007B685B68B3F1FF3F03D07B685B68FB6030
:10284C000EE00120FFF7F4FEF860FB68002B04D1CA
:10285C007B6804225A74012326E0FB68013BFB6071
:10286C00FB681A0C7B681B6802F00F029A607B688D
:10287C001B68FA6892B2DA60786800F055FA034681
:10288C00002B04D07B6804225A7401230CE07B6873
:10289C000022DA737B6801225A737B6801229A73D7
:1028AC007B6801225A74002318461037BD4680BD40
:1028BC00006C004090B587B000AFF860B9607A60EA
:1028CC0000237B6100233B61FB68002B02D0BB68BB
:1028DC00002B01D1012380E0FB681B7C012B01D173
:1028EC0002237AE0FB6801221A74FB6802225A74F4
:1028FC007B68002B13D1BB681B781A464FF46163BD
:10290C0003FB02F2BB685B7819460B461B015B1A92
:10291C009B001344BA68927813447B611EE0BB6839
:10292C001B78184600F028FA03461A464FF46163E8
:10293C0003FB02F4BB685B78184600F01DFA0346F3
:10294C001A4613461B019B1A9B001C44BB689B78C0
:10295C00184600F011FA034623447B617969F86844
:10296C0000F053F90346002B07D0FB6804225A747D
:10297C00FB6800221A7401232FE0FB681B685A685D
:10298C00FB681B6822F005025A60F86800F064F9D5
:10299C0038613B69B3F1FF3F18D03A697B699A42C1
:1029AC0014D23B6903F5A83303F5C0733B61396955
:1029BC00F86800F06AF90346002B07D0FB68042284
:1029CC005A74FB6800221A74012306E0FB6801228A
:1029DC005A74FB6800221A74002318461C37BD4633
:1029EC0090BD000080B588B000AFF860B9607A6027
:1029FC000023FB610023BB6100237B61FB68002B80
:102A0C0002D0BB68002B01D1012397E0FB681B7C33
:102A1C00012B01D1022391E0FB6801221A74FB689F
:102A2C0002225A747B68002B0CD1BB68DA78FB68E5
:102A3C00DA73BB685A78FB685A73BB689A78FB6880
:102A4C009A731AE0BB68DB78184600F095F90346D8
:102A5C001A46FB68DA73BB685B78184600F08CF991
:102A6C0003461A46FB685A73BB689B78184600F0FD
:102A7C0083F903461A46FB689A73FB68DB7B18469E
:102A8C00FB68597BFB689B7B1A4600F093F9034665
:102A9C001A46FB681A73FB681A7BBB681A70F868D5
:102AAC0000F083F8F861FB69264AA2FB0323DB0ADA
:102ABC007B617B69182B3AD97B69234AA2FB0323E0
:102ACC001B09224A02FB03F3FA69D31AFB61F96969
:102ADC00F86800F09AF80346002B07D0FB68042234
:102AEC005A74FB6800221A74012327E0F86800F07E
:102AFC00B3F8B861BB69B3F1FF3F18D0BA69FB6991
:102B0C009A4214D2BB6903F5A83303F5C073BB61B9
:102B1C00B969F86800F0B9F80346002B07D0FB68D8
:102B2C0004225A74FB6800221A74012306E0FB6825
:102B3C0001225A74FB6800221A74002318462037AD
:102B4C00BD4680BDC5B3A291ABAAAAAA8051010013
:102B5C0080B584B000AF78600023FB607B68002BED
:102B6C0001D101231DE07B681B685A687B681B68D8
:102B7C0022F008025A60FEF7AFFDF86009E0FEF79C
:102B8C00ABFD0246FB68D31AB3F57A7F01D9032358
:102B9C0007E07B681B685B6803F00803002BEED032
:102BAC00002318461037BD4680BD80B487B000AFF7
:102BBC00786000237B8200233B820023FB8100236F
:102BCC007B617B681B689B697B827B681B68DB690C
:102BDC00FB817B681B689B693B827A8A3B8A9A42A1
:102BEC0008D03B8A1A047B681B68DB699BB21343D1
:102BFC007B6104E07B8A1A04FB8913437B617B694C
:102C0C0018461C37BD4680BC704780B584B000AFF9
:102C1C00786039600023FB73786800F05DF8034638
:102C2C00002B02D00123FB7311E07B681B683A6810
:102C3C00120C9A617B681B683A6892B2DA61786808
:102C4C0000F072F80346002B01D00123FB73FB7BD1
:102C5C0018461037BD4680BD80B485B000AF786093
:102C6C000023FB810023BB817B681B681B6AFB81F3
:102C7C007B681B685B6ABB81FB891A04BB891343A5
:102C8C0018461437BD4680BC704780B584B000AF81
:102C9C00786039600023FB73786800F01DF80346F8
:102CAC00002B02D00123FB7311E07B681B683A6890
:102CBC00120C1A627B681B683A6892B25A62786886
:102CCC0000F032F80346002B01D00123FB73FB7B91
:102CDC0018461037BD4680BD80B584B000AF786013
:102CEC000023FB60FEF7F8FCF86009E0FEF7F4FC4B
:102CFC000246FB68D31AB3F57A7F01D903230FE0A0
:102D0C007B681B685B6803F02003002BEED07B68AC
:102D1C001B685A687B681B6842F010025A600023DB
:102D2C0018461037BD4680BD80B584B000AF7860C2
:102D3C000023FB607B681B685A687B681B6822F069
:102D4C0010025A60FEF7C8FCF86009E0FEF7C4FCFC
:102D5C000246FB68D31AB3F57A7F01D9032307E047
:102D6C007B681B685B6803F02003002BEED000230C
:102D7C0018461037BD4680BD80B485B000AF034601
:102D8C00FB710023FB60FB791B09DBB21A4613466F
:102D9C009B0013445B00FB60FB7903F00F03DAB27A
:102DAC00FB68DBB21344DBB218461437BD4680BC5B
:102DBC007047000080B485B000AF78600B46FB70A4
:102DCC001346BB700023BB600023FB607B6803F5DC
:102DDC00FA63BB60FB78022B2DD8FA7813465B00A4
:102DEC001344DB009B1A2C4AA2FB03235A08BB7822
:102DFC001A44BB681A44BB68013B9B081A44BB6865
:102E0C00013B2649A1FB03135B09D21ABB68013BAA
:102E1C002249A1FB0313DB0913441A1D204BA3FB0E
:102E2C000213D11A49080B4499080B46DB005B1AB4
:102E3C00D31AFB6029E0FA7813465B001344DB00DD
:102E4C009B1A154AA2FB03235A08BB781A44BB6889
:102E5C001A44BB689B081A44BB681049A1FB0313B6
:102E6C005B09D21ABB680D49A1FB0313DB091344A0
:102E7C009A1C0B4BA3FB0213D11A49080B4499085B
:102E8C000B46DB005B1AD31AFB60FB68DBB21846FF
:102E9C001437BD4680BC7047398EE3381F85EB5123
:102EAC002549922480B582B000AF78607B68002BF6
:102EBC0001D1012376E07B685B6A002B08D17B682B
:102ECC005B68B3F5827F09D07B680022DA6105E08C
:102EDC007B6800221A617B6800225A617B680022A1
:102EEC009A627B6893F85130DBB2002B06D17B6879
:102EFC00002283F850207868FEF7B0FA7B68022233
:102F0C0083F851207B681B681A687B681B6822F069
:102F1C0040021A607B685B6803F482727B689B6872
:102F2C0003F404431A437B68DB6803F400631A431D
:102F3C007B681B6903F002031A437B685B6903F02F
:102F4C0001031A437B689B6903F400731A437B6883
:102F5C00DB6903F038031A437B681B6A03F08003B8
:102F6C0042EA03017B689B6A03F400527B681B688E
:102F7C000A431A607B689B691A0C7B681B6802F019
:102F8C0004025A607B681B68DA697B681B6822F450
:102F9C000062DA617B6800225A657B68012283F843
:102FAC005120002318460837BD4680BD80B588B037
:102FBC0000AFF860B9603B601346FB80FEF78CFBFA
:102FCC00F861FB887B83FB6893F85130DBB2012BF3
:102FDC0001D002232AE1BB68002B02D0FB88002B16
:102FEC0001D1012322E1FB6893F85030012B01D170
:102FFC0002231BE1FB68012283F85020FB680322AB
:10300C0083F85120FB6800225A65FB68BA681A6382
:10301C00FB68FA889A86FB68FA88DA86FB680022D5
:10302C009A63FB6800229A87FB680022DA87FB68A8
:10303C0000225A64FB6800221A64FB689B68B3F593
:10304C00004F0FD1FB681B681A68FB681B6822F0E5
:10305C0040021A60FB681B681A68FB681B6842F424
:10306C0080421A60FB681B681B6803F04003402B0E
:10307C0007D0FB681B681A68FB681B6842F04002AB
:10308C001A60FB68DB68B3F5006F52D1FB685B68B4
:10309C00002B02D07B8B012B45D1FB681B6B1A8854
:1030AC00FB681B68DA60FB681B6B9A1CFB681A6375
:1030BC00FB68DB8E9BB2013B9AB2FB68DA8632E08E
:1030CC00FB681B689B6803F00203022B12D1FB68A0
:1030DC001B6B1A88FB681B68DA60FB681B6B9A1CFD
:1030EC00FB681A63FB68DB8E9BB2013B9AB2FB68F0
:1030FC00DA8618E0FEF7F0FA0246FB69D31A3A6852
:10310C009A4203D83B68B3F1FF3F02D13B68002BD6
:10311C0009D1FB68012283F85120FB68002283F857
:10312C005020032382E0FB68DB8E9BB2002BC7D1BF
:10313C0053E0FB685B68002B02D07B8B012B47D1E3
:10314C00FB681A6BFB681B680C3312781A70FB68EF
:10315C001B6B5A1CFB681A63FB68DB8E9BB2013B32
:10316C009AB2FB68DA8633E0FB681B689B6803F055
:10317C000203022B13D1FB681A6BFB681B680C3320
:10318C0012781A70FB681B6B5A1CFB681A63FB687D
:10319C00DB8E9BB2013B9AB2FB68DA8618E0FEF735
:1031AC009BFA0246FB69D31A3A689A4203D83B68E9
:1031BC00B3F1FF3F02D13B68002B09D1FB68012220
:1031CC0083F85120FB68002283F8502003232DE064
:1031DC00FB68DB8E9BB2002BC6D1FA693968F868A4
:1031EC0000F0B0F80346002B02D0FB6820225A6591
:1031FC00FB689B68002B0AD100237B61FB681B6872
:10320C00DB687B61FB681B689B687B617B69FB6887
:10321C00012283F85120FB68002283F85020FB68C0
:10322C005B6D002B01D0012300E0002318462037F2
:10323C00BD4680BD80B588B000AFF860B9603B601A
:10324C001346FB71FEF748FA0246BB6A9B1A3A68B2
:10325C001344FB61FEF740FAB861394B1B685B0104
:10326C001B0DFA6902FB03F37B6154E03B68B3F17D
:10327C00FF3F50D0FEF730FA0246BB69D31AFA6909
:10328C009A4202D9FB69002B3DD1FB681B685A6836
:10329C00FB681B6822F0E0025A60FB685B68B3F5C0
:1032AC00827F11D1FB689B68B3F5004F04D0FB689B
:1032BC009B68B3F5806F07D1FB681B681A68FB68C5
:1032CC001B6822F040021A60FB689B6AB3F5005F32
:1032DC000FD1FB681B681A68FB681B6822F400524C
:1032EC001A60FB681B681A68FB681B6842F4005282
:1032FC001A60FB68012283F85120FB68002283F8D6
:10330C005020032317E07B69002B01D10023FB61C4
:10331C007B69013B7B61FB681B689A68BB68134047
:10332C00BA689A420CBF01230023DBB21A46FB7920
:10333C009A429BD1002318462037BD4680BD00BF62
:10334C000400002080B586B002AFF860B9607A60E6
:10335C007B680093BB6801220221F868FFF76AFFC3
:10336C000346002B07D0FB685B6D43F02002FB6823
:10337C005A65032313E07B680093BB68002280210D
:10338C00F868FFF757FF0346002B07D0FB685B6D0F
:10339C0043F02002FB685A65032300E00023184623
:1033AC001037BD4680BD80B582B000AF78607B68B9
:1033BC00002B01D1012341E07B6893F83D30DBB257
:1033CC00002B06D17B68002283F83C207868FEF73E
:1033DC008FF87B68022283F83D207B681A687B6833
:1033EC0004331946104600F05BFA7B68012283F81F
:1033FC0046207B68012283F83E207B68012283F8FB
:10340C003F207B68012283F840207B68012283F8EF
:10341C0041207B68012283F842207B68012283F8DB
:10342C0043207B68012283F844207B68012283F8C7
:10343C0045207B68012283F83D200023184608377D
:10344C00BD4680BD80B485B000AF78607B6893F8D2
:10345C003D30DBB2012B01D001233AE07B68022224
:10346C0083F83D207B681B68DA687B681B6842F038
:10347C000102DA607B681B68184A93420ED07B68A5
:10348C001B68B3F1804F09D07B681B68144A9342C8
:10349C0004D07B681B68134A934211D17B681B686C
:1034AC009B6803F00703FB60FB68062B10D07B685E
:1034BC001B681A687B681B6842F001021A6007E0FF
:1034CC007B681B681A687B681B6842F001021A60F3
:1034DC00002318461437BD4680BC7047002C0140B1
:1034EC00000400400008004080B584B000AF786054
:1034FC007B681B68DB68FB607B681B681B69BB60B7
:10350C00BB6803F00203002B20D0FB6803F002031E
:10351C00002B1BD07B681B686FF002021A617B6862
:10352C0001221A777B681B689B6903F00303002B4D
:10353C0003D0786800F098F905E0786800F08BF912
:10354C00786800F09AF97B6800221A77BB6803F060
:10355C000403002B20D0FB6803F00403002B1BD0CA
:10356C007B681B686FF004021A617B6802221A7771
:10357C007B681B689B6903F44073002B03D078684D
:10358C0000F072F905E0786800F065F9786800F0F1
:10359C0074F97B6800221A77BB6803F00803002BD0
:1035AC0020D0FB6803F00803002B1BD07B681B6842
:1035BC006FF008021A617B6804221A777B681B681B
:1035CC00DB6903F00303002B03D0786800F04CF99F
:1035DC0005E0786800F03FF9786800F04EF97B68F8
:1035EC0000221A77BB6803F01003002B20D0FB6875
:1035FC0003F01003002B1BD07B681B686FF01002CC
:10360C001A617B6808221A777B681B68DB6903F4F4
:10361C004073002B03D0786800F026F905E0786839
:10362C0000F019F9786800F028F97B6800221A7705
:10363C00BB6803F00103002B0CD0FB6803F0010303
:10364C00002B07D07B681B686FF001021A61786849
:10365C00FDF732FEBB6803F08003002B0CD0FB6837
:10366C0003F08003002B07D07B681B686FF080028F
:10367C001A61786800F07FFABB6803F04003002BF6
:10368C000CD0FB6803F04003002B07D07B681B6851
:10369C006FF040021A61786800F0F8F8BB6803F02C
:1036AC002003002B0CD0FB6803F02003002B07D069
:1036BC007B681B686FF020021A61786800F052FA80
:1036CC0000BF1037BD4680BD80B584B000AF7860B8
:1036DC0039600023FB737B6893F83C30012B01D1DC
:1036EC000223B4E07B68012283F83C207B68022231
:1036FC0083F83D207B681B689B68BB60BB6823F02C
:10370C007703BB60BB6823F47F43BB607B681B689B
:10371C00BA689A603B681B68B3F5005F3ED0B3F59E
:10372C00005F00F28780B3F5805F00F08680B3F510
:10373C00805F7FD8702B1AD0702B7BD8602B50D029
:10374C00602B77D8502B3CD0502B73D8402B58D0B3
:10375C00402B6FD8302B64D0302B6BD8202B60D003
:10376C00202B67D8002B5CD0102B5AD062E07B68E2
:10377C0018683B6899683B685A683B68DB6800F0DE
:10378C0074F97B681B689B68BB60BB6843F077036C
:10379C00BB607B681B68BA689A604FE07B681868EE
:1037AC003B6899683B685A683B68DB6800F05DF9D8
:1037BC007B681B689A687B681B6842F480429A603D
:1037CC003CE07B6818683B6859683B68DB681A46C4
:1037DC0000F0D4F87B681B685021184600F02BF9D8
:1037EC002CE07B6818683B6859683B68DB681A46B4
:1037FC0000F0F2F87B681B686021184600F01BF99A
:10380C001CE07B6818683B6859683B68DB681A46A3
:10381C0000F0B4F87B681B684021184600F00BF9E7
:10382C000CE07B681A683B681B681946104600F070
:10383C0002F903E00123FB7300E000BF7B68012267
:10384C0083F83D207B68002283F83C20FB7B1846E4
:10385C001037BD4680BD80B483B000AF786000BF28
:10386C000C37BD4680BC704780B483B000AF786025
:10387C0000BF0C37BD4680BC704780B483B000AF2E
:10388C00786000BF0C37BD4680BC704780B483B0F5
:10389C0000AF786000BF0C37BD4680BC704700009D
:1038AC0080B485B000AF786039607B681B68FB60C2
:1038BC007B682F4A93420BD07B68B3F1804F07D0C3
:1038CC007B682C4A934203D07B682B4A934208D1E5
:1038DC00FB6823F07003FB603B685B68FA6813437A
:1038EC00FB607B68224A93420BD07B68B3F1804F1C
:1038FC0007D07B681F4A934203D07B681E4A9342D1
:10390C0008D1FB6823F44073FB603B68DB68FA6802
:10391C001343FB60FB6823F080023B685B69134335
:10392C00FB607B68FA681A603B689A687B68DA62AD
:10393C003B681A687B689A627B680D4A934203D194
:10394C003B681A697B681A637B6801225A617B6841
:10395C001B6903F00103002B05D07B681B6923F066
:10396C0001027B681A6100BF1437BD4680BC7047EA
:10397C00002C0140000400400008004080B487B0D7
:10398C0000AFF860B9607A60FB681B6A7B61FB680A
:10399C001B6A23F00102FB681A62FB689B693B619E
:1039AC003B6923F0F0033B617B681B013A691343CD
:1039BC003B617B6923F00A037B617A69BB68134323
:1039CC007B61FB683A699A61FB687A691A6200BF8D
:1039DC001C37BD4680BC704780B487B000AFF86020
:1039EC00B9607A60FB681B6A7B61FB681B6A23F019
:1039FC001002FB681A62FB689B693B613B6923F40C
:103A0C0070433B617B681B033A6913433B617B69E1
:103A1C0023F0A0037B61BB681B017A6913437B61B4
:103A2C00FB683A699A61FB687A691A6200BF1C37B5
:103A3C00BD4680BC704780B485B000AF78603960FB
:103A4C007B689B68FB60FB6823F07003FB603A6843
:103A5C00FB68134343F00703FB607B68FA689A60CA
:103A6C0000BF1437BD4680BC704780B487B000AF30
:103A7C00F860B9607A603B60FB689B687B617B692E
:103A8C0023F47F437B613B681A027B681A43BB6853
:103A9C0013437A6913437B61FB687A699A6000BFB0
:103AAC001C37BD4680BC704780B485B000AF7860D1
:103ABC0039607B6893F83C30012B01D1022346E03E
:103ACC007B68012283F83C207B68022283F83D202E
:103ADC007B681B685B68FB607B681B689B68BB60D2
:103AEC00FB6823F07003FB603B681B68FA681343A8
:103AFC00FB607B681B68FA685A607B681B68164A17
:103B0C0093420ED07B681B68B3F1804F09D07B6861
:103B1C001B68124A934204D07B681B68104A93427C
:103B2C000CD1BB6823F08003BB603B685B68BA6850
:103B3C001343BB607B681B68BA689A607B68012280
:103B4C0083F83D207B68002283F83C200023184634
:103B5C001437BD4680BC7047002C01400004004067
:103B6C000008004080B483B000AF786000BF0C3711
:103B7C00BD4680BC704780B483B000AF786000BF96
:103B8C000C37BD4680BC704770B500260C4D0D4CF3
:103B9C00641BA410A64209D100F022F800260A4D9D
:103BAC000A4C641BA410A64205D170BD55F8043B09
:103BBC0098470136EEE755F8043B98470136F2E793
:103BCC00303D0008303D0008303D0008343D000811
:103BDC0003460244934200D1704703F8011BF9E7F6
:103BEC00F8B500BFF8BC08BC9E467047F8B500BFDE
:083BFC00F8BC08BC9E467047AE
:103C0400EF00EB0114FE00EF00EB0114840140858A
:103C140001FF8601FF8701FF88010A8901218A01CA
:103C2400008B01808C01018D01018E01FF8F01FF4A
:103C3400B60200003601483A010590040808080855
:103C4400BD0106BC0100FF03600104C30113C401EC
:103C540013C90122BE0111E102100EDF03210C027F
:103C6400F00645090808262AF10643707236376FB4
:103C7400F20645090808262AF30643707236376FA0
:103C8400ED021B0BAE0177CD0163E80134620C1821
:103C94000D71ED7070180F71EF7070630C18117165
:103CA400F17070181371F3707064072829F101F131
:103CB4000007660A3C00CD67454510000000670A0E
:103CC400003C0000000154103298740710858000F5
:103CD400004E0098023E0735002100118029800023
:103CE4003F065B4F666D7D077F6F0000000000009C
:103CF4000000000001020304060708090000000098
:103D04000102030402030405060708090A0B0C0D4B
:103D14000E0F101001020000020304050607080933
:0C3D24000A0B0C0D0E0F10100102000025
:043D30003101000855
:043D34000D01000875
:103D38000101000000127A001000000001000000DC
:04000005080015E9F1
:00000001FF
